{
  "_format": "hh-sol-artifact-1",
  "contractName": "ScienceFund",
  "sourceName": "contracts/ScienceFund.sol",
  "abi": [
    {
      "inputs": [],
      "stateMutability": "nonpayable",
      "type": "constructor"
    },
    {
      "anonymous": false,
      "inputs": [
        {
          "indexed": true,
          "internalType": "address",
          "name": "owner",
          "type": "address"
        },
        {
          "indexed": true,
          "internalType": "address",
          "name": "approved",
          "type": "address"
        },
        {
          "indexed": true,
          "internalType": "uint256",
          "name": "tokenId",
          "type": "uint256"
        }
      ],
      "name": "Approval",
      "type": "event"
    },
    {
      "anonymous": false,
      "inputs": [
        {
          "indexed": true,
          "internalType": "address",
          "name": "owner",
          "type": "address"
        },
        {
          "indexed": true,
          "internalType": "address",
          "name": "operator",
          "type": "address"
        },
        {
          "indexed": false,
          "internalType": "bool",
          "name": "approved",
          "type": "bool"
        }
      ],
      "name": "ApprovalForAll",
      "type": "event"
    },
    {
      "anonymous": false,
      "inputs": [
        {
          "indexed": true,
          "internalType": "address",
          "name": "previousOwner",
          "type": "address"
        },
        {
          "indexed": true,
          "internalType": "address",
          "name": "newOwner",
          "type": "address"
        }
      ],
      "name": "OwnershipTransferred",
      "type": "event"
    },
    {
      "anonymous": false,
      "inputs": [
        {
          "indexed": false,
          "internalType": "uint256",
          "name": "id",
          "type": "uint256"
        },
        {
          "indexed": false,
          "internalType": "string",
          "name": "allocationHash",
          "type": "string"
        }
      ],
      "name": "SFTokenAllocated",
      "type": "event"
    },
    {
      "anonymous": false,
      "inputs": [
        {
          "indexed": false,
          "internalType": "uint256",
          "name": "id",
          "type": "uint256"
        },
        {
          "indexed": false,
          "internalType": "string",
          "name": "completeHash",
          "type": "string"
        }
      ],
      "name": "SFTokenCompleted",
      "type": "event"
    },
    {
      "anonymous": false,
      "inputs": [
        {
          "indexed": false,
          "internalType": "uint256",
          "name": "id",
          "type": "uint256"
        },
        {
          "indexed": false,
          "internalType": "uint256",
          "name": "value",
          "type": "uint256"
        },
        {
          "indexed": false,
          "internalType": "string",
          "name": "pool",
          "type": "string"
        }
      ],
      "name": "SFTokenMinted",
      "type": "event"
    },
    {
      "anonymous": false,
      "inputs": [
        {
          "indexed": true,
          "internalType": "address",
          "name": "from",
          "type": "address"
        },
        {
          "indexed": true,
          "internalType": "address",
          "name": "to",
          "type": "address"
        },
        {
          "indexed": true,
          "internalType": "uint256",
          "name": "tokenId",
          "type": "uint256"
        }
      ],
      "name": "Transfer",
      "type": "event"
    },
    {
      "inputs": [
        {
          "internalType": "uint256",
          "name": "_tokenId",
          "type": "uint256"
        },
        {
          "internalType": "string",
          "name": "_allocationHash",
          "type": "string"
        }
      ],
      "name": "allocate",
      "outputs": [],
      "stateMutability": "nonpayable",
      "type": "function"
    },
    {
      "inputs": [
        {
          "internalType": "address",
          "name": "to",
          "type": "address"
        },
        {
          "internalType": "uint256",
          "name": "tokenId",
          "type": "uint256"
        }
      ],
      "name": "approve",
      "outputs": [],
      "stateMutability": "nonpayable",
      "type": "function"
    },
    {
      "inputs": [
        {
          "internalType": "address",
          "name": "owner",
          "type": "address"
        }
      ],
      "name": "balanceOf",
      "outputs": [
        {
          "internalType": "uint256",
          "name": "",
          "type": "uint256"
        }
      ],
      "stateMutability": "view",
      "type": "function"
    },
    {
      "inputs": [
        {
          "internalType": "uint256",
          "name": "_tokenId",
          "type": "uint256"
        },
        {
          "internalType": "string",
          "name": "_completeHash",
          "type": "string"
        }
      ],
      "name": "complete",
      "outputs": [],
      "stateMutability": "nonpayable",
      "type": "function"
    },
    {
      "inputs": [
        {
          "internalType": "string",
          "name": "_selectedPool",
          "type": "string"
        }
      ],
      "name": "donate",
      "outputs": [
        {
          "internalType": "uint256",
          "name": "",
          "type": "uint256"
        }
      ],
      "stateMutability": "payable",
      "type": "function"
    },
    {
      "inputs": [
        {
          "internalType": "uint256",
          "name": "tokenId",
          "type": "uint256"
        }
      ],
      "name": "getApproved",
      "outputs": [
        {
          "internalType": "address",
          "name": "",
          "type": "address"
        }
      ],
      "stateMutability": "view",
      "type": "function"
    },
    {
      "inputs": [
        {
          "internalType": "uint256",
          "name": "_tokenID",
          "type": "uint256"
        }
      ],
      "name": "getSFToken",
      "outputs": [
        {
          "components": [
            {
              "internalType": "uint256",
              "name": "tokenId",
              "type": "uint256"
            },
            {
              "internalType": "uint256",
              "name": "value",
              "type": "uint256"
            },
            {
              "internalType": "string",
              "name": "pool",
              "type": "string"
            },
            {
              "internalType": "string",
              "name": "alloHash",
              "type": "string"
            },
            {
              "internalType": "string",
              "name": "completeHash",
              "type": "string"
            }
          ],
          "internalType": "struct ScienceFundToken.SFtoken",
          "name": "",
          "type": "tuple"
        }
      ],
      "stateMutability": "view",
      "type": "function"
    },
    {
      "inputs": [
        {
          "internalType": "enum ScienceFundToken.Stage",
          "name": "stageEnum",
          "type": "uint8"
        }
      ],
      "name": "getStage",
      "outputs": [
        {
          "internalType": "string",
          "name": "",
          "type": "string"
        }
      ],
      "stateMutability": "pure",
      "type": "function"
    },
    {
      "inputs": [
        {
          "internalType": "address",
          "name": "owner",
          "type": "address"
        },
        {
          "internalType": "address",
          "name": "operator",
          "type": "address"
        }
      ],
      "name": "isApprovedForAll",
      "outputs": [
        {
          "internalType": "bool",
          "name": "",
          "type": "bool"
        }
      ],
      "stateMutability": "view",
      "type": "function"
    },
    {
      "inputs": [],
      "name": "name",
      "outputs": [
        {
          "internalType": "string",
          "name": "",
          "type": "string"
        }
      ],
      "stateMutability": "view",
      "type": "function"
    },
    {
      "inputs": [],
      "name": "owner",
      "outputs": [
        {
          "internalType": "address",
          "name": "",
          "type": "address"
        }
      ],
      "stateMutability": "view",
      "type": "function"
    },
    {
      "inputs": [
        {
          "internalType": "uint256",
          "name": "tokenId",
          "type": "uint256"
        }
      ],
      "name": "ownerOf",
      "outputs": [
        {
          "internalType": "address",
          "name": "",
          "type": "address"
        }
      ],
      "stateMutability": "view",
      "type": "function"
    },
    {
      "inputs": [],
      "name": "renounceOwnership",
      "outputs": [],
      "stateMutability": "nonpayable",
      "type": "function"
    },
    {
      "inputs": [
        {
          "internalType": "address",
          "name": "from",
          "type": "address"
        },
        {
          "internalType": "address",
          "name": "to",
          "type": "address"
        },
        {
          "internalType": "uint256",
          "name": "tokenId",
          "type": "uint256"
        }
      ],
      "name": "safeTransferFrom",
      "outputs": [],
      "stateMutability": "nonpayable",
      "type": "function"
    },
    {
      "inputs": [
        {
          "internalType": "address",
          "name": "from",
          "type": "address"
        },
        {
          "internalType": "address",
          "name": "to",
          "type": "address"
        },
        {
          "internalType": "uint256",
          "name": "tokenId",
          "type": "uint256"
        },
        {
          "internalType": "bytes",
          "name": "_data",
          "type": "bytes"
        }
      ],
      "name": "safeTransferFrom",
      "outputs": [],
      "stateMutability": "nonpayable",
      "type": "function"
    },
    {
      "inputs": [
        {
          "internalType": "address",
          "name": "operator",
          "type": "address"
        },
        {
          "internalType": "bool",
          "name": "approved",
          "type": "bool"
        }
      ],
      "name": "setApprovalForAll",
      "outputs": [],
      "stateMutability": "nonpayable",
      "type": "function"
    },
    {
      "inputs": [
        {
          "internalType": "bytes4",
          "name": "interfaceId",
          "type": "bytes4"
        }
      ],
      "name": "supportsInterface",
      "outputs": [
        {
          "internalType": "bool",
          "name": "",
          "type": "bool"
        }
      ],
      "stateMutability": "view",
      "type": "function"
    },
    {
      "inputs": [],
      "name": "symbol",
      "outputs": [
        {
          "internalType": "string",
          "name": "",
          "type": "string"
        }
      ],
      "stateMutability": "view",
      "type": "function"
    },
    {
      "inputs": [
        {
          "internalType": "uint256",
          "name": "index",
          "type": "uint256"
        }
      ],
      "name": "tokenByIndex",
      "outputs": [
        {
          "internalType": "uint256",
          "name": "",
          "type": "uint256"
        }
      ],
      "stateMutability": "view",
      "type": "function"
    },
    {
      "inputs": [
        {
          "internalType": "address",
          "name": "owner",
          "type": "address"
        },
        {
          "internalType": "uint256",
          "name": "index",
          "type": "uint256"
        }
      ],
      "name": "tokenOfOwnerByIndex",
      "outputs": [
        {
          "internalType": "uint256",
          "name": "",
          "type": "uint256"
        }
      ],
      "stateMutability": "view",
      "type": "function"
    },
    {
      "inputs": [
        {
          "internalType": "uint256",
          "name": "_tokenId",
          "type": "uint256"
        }
      ],
      "name": "tokenURI",
      "outputs": [
        {
          "internalType": "string",
          "name": "",
          "type": "string"
        }
      ],
      "stateMutability": "view",
      "type": "function"
    },
    {
      "inputs": [],
      "name": "totalSupply",
      "outputs": [
        {
          "internalType": "uint256",
          "name": "",
          "type": "uint256"
        }
      ],
      "stateMutability": "view",
      "type": "function"
    },
    {
      "inputs": [
        {
          "internalType": "address",
          "name": "from",
          "type": "address"
        },
        {
          "internalType": "address",
          "name": "to",
          "type": "address"
        },
        {
          "internalType": "uint256",
          "name": "tokenId",
          "type": "uint256"
        }
      ],
      "name": "transferFrom",
      "outputs": [],
      "stateMutability": "nonpayable",
      "type": "function"
    },
    {
      "inputs": [
        {
          "internalType": "address",
          "name": "newOwner",
          "type": "address"
        }
      ],
      "name": "transferOwnership",
      "outputs": [],
      "stateMutability": "nonpayable",
      "type": "function"
    },
    {
      "inputs": [],
      "name": "withdraw",
      "outputs": [],
      "stateMutability": "nonpayable",
      "type": "function"
    }
  ],
  "bytecode": "0x60806040523480156200001157600080fd5b506040518060400160405280600b81526020017f536369656e636546756e640000000000000000000000000000000000000000008152506040518060400160405280600381526020017f5346540000000000000000000000000000000000000000000000000000000000815250816001908051906020019062000096929190620001a6565b508060029080519060200190620000af929190620001a6565b505050620000d2620000c6620000d860201b60201c565b620000e060201b60201c565b620002bb565b600033905090565b6000600b60009054906101000a900473ffffffffffffffffffffffffffffffffffffffff16905081600b60006101000a81548173ffffffffffffffffffffffffffffffffffffffff021916908373ffffffffffffffffffffffffffffffffffffffff1602179055508173ffffffffffffffffffffffffffffffffffffffff168173ffffffffffffffffffffffffffffffffffffffff167f8be0079c531659141344cd1fd0a4f28419497f9722a3daafe3b4186f6b6457e060405160405180910390a35050565b828054620001b49062000256565b90600052602060002090601f016020900481019282620001d8576000855562000224565b82601f10620001f357805160ff191683800117855562000224565b8280016001018555821562000224579182015b828111156200022357825182559160200191906001019062000206565b5b50905062000233919062000237565b5090565b5b808211156200025257600081600090555060010162000238565b5090565b600060028204905060018216806200026f57607f821691505b602082108114156200028657620002856200028c565b5b50919050565b7f4e487b7100000000000000000000000000000000000000000000000000000000600052602260045260246000fd5b61591480620002cb6000396000f3fe6080604052600436106101665760003560e01c80636352211e116100d1578063a22cb4651161008a578063c87b56dd11610064578063c87b56dd1461053f578063e985e9c51461057c578063f2fde38b146105b9578063f3110432146105e257610166565b8063a22cb465146104bd578063b5aebc80146104e6578063b88d4fde1461051657610166565b80636352211e1461039957806370a08231146103d6578063715018a6146104135780638da5cb5b1461042a57806395d89b41146104555780639ab511da1461048057610166565b80632e28fd42116101235780632e28fd421461028d5780632f745c59146102b65780633ccfd60b146102f357806342842e0e1461030a5780634f6ccce71461033357806351ad17d31461037057610166565b806301ffc9a71461016b57806306fdde03146101a8578063081812fc146101d3578063095ea7b31461021057806318160ddd1461023957806323b872dd14610264575b600080fd5b34801561017757600080fd5b50610192600480360381019061018d91906132f1565b61061f565b60405161019f9190613dce565b60405180910390f35b3480156101b457600080fd5b506101bd610699565b6040516101ca9190613de9565b60405180910390f35b3480156101df57600080fd5b506101fa60048036038101906101f591906133ad565b61072b565b6040516102079190613d67565b60405180910390f35b34801561021c57600080fd5b50610237600480360381019061023291906132b5565b6107b0565b005b34801561024557600080fd5b5061024e6108c8565b60405161025b91906140cd565b60405180910390f35b34801561027057600080fd5b5061028b600480360381019061028691906131af565b6108d5565b005b34801561029957600080fd5b506102b460048036038101906102af91906133d6565b610935565b005b3480156102c257600080fd5b506102dd60048036038101906102d891906132b5565b6109fa565b6040516102ea91906140cd565b60405180910390f35b3480156102ff57600080fd5b50610308610a9f565b005b34801561031657600080fd5b50610331600480360381019061032c91906131af565b610b1d565b005b34801561033f57600080fd5b5061035a600480360381019061035591906133ad565b610b3d565b60405161036791906140cd565b60405180910390f35b34801561037c57600080fd5b50610397600480360381019061039291906133d6565b610bd4565b005b3480156103a557600080fd5b506103c060048036038101906103bb91906133ad565b610c99565b6040516103cd9190613d67565b60405180910390f35b3480156103e257600080fd5b506103fd60048036038101906103f8919061314a565b610d4b565b60405161040a91906140cd565b60405180910390f35b34801561041f57600080fd5b50610428610e03565b005b34801561043657600080fd5b5061043f610e8b565b60405161044c9190613d67565b60405180910390f35b34801561046157600080fd5b5061046a610eb5565b6040516104779190613de9565b60405180910390f35b34801561048c57600080fd5b506104a760048036038101906104a291906133ad565b610f47565b6040516104b491906140ab565b60405180910390f35b3480156104c957600080fd5b506104e460048036038101906104df9190613279565b61113d565b005b61050060048036038101906104fb919061336c565b6112be565b60405161050d91906140cd565b60405180910390f35b34801561052257600080fd5b5061053d600480360381019061053891906131fe565b6113b2565b005b34801561054b57600080fd5b50610566600480360381019061056191906133ad565b611414565b6040516105739190613de9565b60405180910390f35b34801561058857600080fd5b506105a3600480360381019061059e9190613173565b611478565b6040516105b09190613dce565b60405180910390f35b3480156105c557600080fd5b506105e060048036038101906105db919061314a565b61150c565b005b3480156105ee57600080fd5b5061060960048036038101906106049190613343565b611604565b6040516106169190613de9565b60405180910390f35b60007f780e9d63000000000000000000000000000000000000000000000000000000007bffffffffffffffffffffffffffffffffffffffffffffffffffffffff1916827bffffffffffffffffffffffffffffffffffffffffffffffffffffffff191614806106925750610691826117b0565b5b9050919050565b6060600180546106a8906143fc565b80601f01602080910402602001604051908101604052809291908181526020018280546106d4906143fc565b80156107215780601f106106f657610100808354040283529160200191610721565b820191906000526020600020905b81548152906001019060200180831161070457829003601f168201915b5050505050905090565b600061073682611892565b610775576040517f08c379a000000000000000000000000000000000000000000000000000000000815260040161076c90613f8b565b60405180910390fd5b6005600083815260200190815260200160002060009054906101000a900473ffffffffffffffffffffffffffffffffffffffff169050919050565b60006107bb82610c99565b90508073ffffffffffffffffffffffffffffffffffffffff168373ffffffffffffffffffffffffffffffffffffffff16141561082c576040517f08c379a000000000000000000000000000000000000000000000000000000000815260040161082390613feb565b60405180910390fd5b8073ffffffffffffffffffffffffffffffffffffffff1661084b6118fe565b73ffffffffffffffffffffffffffffffffffffffff16148061087a5750610879816108746118fe565b611478565b5b6108b9576040517f08c379a00000000000000000000000000000000000000000000000000000000081526004016108b090613f0b565b60405180910390fd5b6108c38383611906565b505050565b6000600980549050905090565b6108e66108e06118fe565b826119bf565b610925576040517f08c379a000000000000000000000000000000000000000000000000000000000815260040161091c9061400b565b60405180910390fd5b610930838383611a9d565b505050565b61093d6118fe565b73ffffffffffffffffffffffffffffffffffffffff1661095b610e8b565b73ffffffffffffffffffffffffffffffffffffffff16146109b1576040517f08c379a00000000000000000000000000000000000000000000000000000000081526004016109a890613fab565b60405180910390fd5b6109bd82600183611cf9565b7f47cd825dcb57fe6d02c665b6e4117290f01b87b3917e6c6d44d07b189f36faca82826040516109ee9291906140e8565b60405180910390a15050565b6000610a0583610d4b565b8210610a46576040517f08c379a0000000000000000000000000000000000000000000000000000000008152600401610a3d90613e2b565b60405180910390fd5b600760008473ffffffffffffffffffffffffffffffffffffffff1673ffffffffffffffffffffffffffffffffffffffff168152602001908152602001600020600083815260200190815260200160002054905092915050565b610aa76118fe565b73ffffffffffffffffffffffffffffffffffffffff16610ac5610e8b565b73ffffffffffffffffffffffffffffffffffffffff1614610b1b576040517f08c379a0000000000000000000000000000000000000000000000000000000008152600401610b1290613fab565b60405180910390fd5b565b610b38838383604051806020016040528060008152506113b2565b505050565b6000610b476108c8565b8210610b88576040517f08c379a0000000000000000000000000000000000000000000000000000000008152600401610b7f9061402b565b60405180910390fd5b60098281548110610bc2577f4e487b7100000000000000000000000000000000000000000000000000000000600052603260045260246000fd5b90600052602060002001549050919050565b610bdc6118fe565b73ffffffffffffffffffffffffffffffffffffffff16610bfa610e8b565b73ffffffffffffffffffffffffffffffffffffffff1614610c50576040517f08c379a0000000000000000000000000000000000000000000000000000000008152600401610c4790613fab565b60405180910390fd5b610c5c82600083611cf9565b7fc2ebc54a5a9e796a9e6a2bce16488a0c5a7df2661ca06250ded826df785d98b88282604051610c8d9291906140e8565b60405180910390a15050565b6000806003600084815260200190815260200160002060009054906101000a900473ffffffffffffffffffffffffffffffffffffffff169050600073ffffffffffffffffffffffffffffffffffffffff168173ffffffffffffffffffffffffffffffffffffffff161415610d42576040517f08c379a0000000000000000000000000000000000000000000000000000000008152600401610d3990613f4b565b60405180910390fd5b80915050919050565b60008073ffffffffffffffffffffffffffffffffffffffff168273ffffffffffffffffffffffffffffffffffffffff161415610dbc576040517f08c379a0000000000000000000000000000000000000000000000000000000008152600401610db390613f2b565b60405180910390fd5b600460008373ffffffffffffffffffffffffffffffffffffffff1673ffffffffffffffffffffffffffffffffffffffff168152602001908152602001600020549050919050565b610e0b6118fe565b73ffffffffffffffffffffffffffffffffffffffff16610e29610e8b565b73ffffffffffffffffffffffffffffffffffffffff1614610e7f576040517f08c379a0000000000000000000000000000000000000000000000000000000008152600401610e7690613fab565b60405180910390fd5b610e896000611f2f565b565b6000600b60009054906101000a900473ffffffffffffffffffffffffffffffffffffffff16905090565b606060028054610ec4906143fc565b80601f0160208091040260200160405190810160405280929190818152602001828054610ef0906143fc565b8015610f3d5780601f10610f1257610100808354040283529160200191610f3d565b820191906000526020600020905b815481529060010190602001808311610f2057829003601f168201915b5050505050905090565b610f4f612f2a565b6000808381526020019081526020016000206040518060a00160405290816000820154815260200160018201548152602001600282018054610f90906143fc565b80601f0160208091040260200160405190810160405280929190818152602001828054610fbc906143fc565b80156110095780601f10610fde57610100808354040283529160200191611009565b820191906000526020600020905b815481529060010190602001808311610fec57829003601f168201915b50505050508152602001600382018054611022906143fc565b80601f016020809104026020016040519081016040528092919081815260200182805461104e906143fc565b801561109b5780601f106110705761010080835404028352916020019161109b565b820191906000526020600020905b81548152906001019060200180831161107e57829003601f168201915b505050505081526020016004820180546110b4906143fc565b80601f01602080910402602001604051908101604052809291908181526020018280546110e0906143fc565b801561112d5780601f106111025761010080835404028352916020019161112d565b820191906000526020600020905b81548152906001019060200180831161111057829003601f168201915b5050505050815250509050919050565b6111456118fe565b73ffffffffffffffffffffffffffffffffffffffff168273ffffffffffffffffffffffffffffffffffffffff1614156111b3576040517f08c379a00000000000000000000000000000000000000000000000000000000081526004016111aa90613ecb565b60405180910390fd5b80600660006111c06118fe565b73ffffffffffffffffffffffffffffffffffffffff1673ffffffffffffffffffffffffffffffffffffffff16815260200190815260200160002060008473ffffffffffffffffffffffffffffffffffffffff1673ffffffffffffffffffffffffffffffffffffffff16815260200190815260200160002060006101000a81548160ff0219169083151502179055508173ffffffffffffffffffffffffffffffffffffffff1661126d6118fe565b73ffffffffffffffffffffffffffffffffffffffff167f17307eab39ab6107e8899845ad3d59bd9653f200f220920489ca2b5937696c31836040516112b29190613dce565b60405180910390a35050565b6000670429d069189e0000341161130a576040517f08c379a00000000000000000000000000000000000000000000000000000000081526004016113019061408b565b60405180910390fd5b611314600c611ff5565b6000611320600c61200b565b905061132c3382612019565b61136e816040518060a001604052808481526020013481526020018681526020016113576000611604565b81526020016113666000611604565b815250612037565b7f0bce83248e82da2b4d09286f9564d7bd1352b643a3038280c0625d8a2019d2488134856040516113a193929190614118565b60405180910390a180915050919050565b6113c36113bd6118fe565b836119bf565b611402576040517f08c379a00000000000000000000000000000000000000000000000000000000081526004016113f99061400b565b60405180910390fd5b61140e848484846120bc565b50505050565b606061141e6108c8565b821115611460576040517f08c379a000000000000000000000000000000000000000000000000000000000815260040161145790613e0b565b60405180910390fd5b61147161146c83610f47565b612118565b9050919050565b6000600660008473ffffffffffffffffffffffffffffffffffffffff1673ffffffffffffffffffffffffffffffffffffffff16815260200190815260200160002060008373ffffffffffffffffffffffffffffffffffffffff1673ffffffffffffffffffffffffffffffffffffffff16815260200190815260200160002060009054906101000a900460ff16905092915050565b6115146118fe565b73ffffffffffffffffffffffffffffffffffffffff16611532610e8b565b73ffffffffffffffffffffffffffffffffffffffff1614611588576040517f08c379a000000000000000000000000000000000000000000000000000000000815260040161157f90613fab565b60405180910390fd5b600073ffffffffffffffffffffffffffffffffffffffff168173ffffffffffffffffffffffffffffffffffffffff1614156115f8576040517f08c379a00000000000000000000000000000000000000000000000000000000081526004016115ef90613e6b565b60405180910390fd5b61160181611f2f565b50565b606060006002811115611640577f4e487b7100000000000000000000000000000000000000000000000000000000600052602160045260246000fd5b826002811115611679577f4e487b7100000000000000000000000000000000000000000000000000000000600052602160045260246000fd5b14156116bc576040518060400160405280601381526020017f4177616974696e6720416c6c6f636174696f6e0000000000000000000000000081525090506117ab565b600160028111156116f6577f4e487b7100000000000000000000000000000000000000000000000000000000600052602160045260246000fd5b82600281111561172f577f4e487b7100000000000000000000000000000000000000000000000000000000600052602160045260246000fd5b1415611772576040518060400160405280601381526020017f4177616974696e6720436f6d706c6574696f6e0000000000000000000000000081525090506117ab565b6040518060400160405280600981526020017f436f6d706c65746564000000000000000000000000000000000000000000000081525090505b919050565b60007f80ac58cd000000000000000000000000000000000000000000000000000000007bffffffffffffffffffffffffffffffffffffffffffffffffffffffff1916827bffffffffffffffffffffffffffffffffffffffffffffffffffffffff1916148061187b57507f5b5e139f000000000000000000000000000000000000000000000000000000007bffffffffffffffffffffffffffffffffffffffffffffffffffffffff1916827bffffffffffffffffffffffffffffffffffffffffffffffffffffffff1916145b8061188b575061188a82612244565b5b9050919050565b60008073ffffffffffffffffffffffffffffffffffffffff166003600084815260200190815260200160002060009054906101000a900473ffffffffffffffffffffffffffffffffffffffff1673ffffffffffffffffffffffffffffffffffffffff1614159050919050565b600033905090565b816005600083815260200190815260200160002060006101000a81548173ffffffffffffffffffffffffffffffffffffffff021916908373ffffffffffffffffffffffffffffffffffffffff160217905550808273ffffffffffffffffffffffffffffffffffffffff1661197983610c99565b73ffffffffffffffffffffffffffffffffffffffff167f8c5be1e5ebec7d5bd14f71427d1e84f3dd0314c0f7b2291e5b200ac8c7c3b92560405160405180910390a45050565b60006119ca82611892565b611a09576040517f08c379a0000000000000000000000000000000000000000000000000000000008152600401611a0090613eeb565b60405180910390fd5b6000611a1483610c99565b90508073ffffffffffffffffffffffffffffffffffffffff168473ffffffffffffffffffffffffffffffffffffffff161480611a8357508373ffffffffffffffffffffffffffffffffffffffff16611a6b8461072b565b73ffffffffffffffffffffffffffffffffffffffff16145b80611a945750611a938185611478565b5b91505092915050565b8273ffffffffffffffffffffffffffffffffffffffff16611abd82610c99565b73ffffffffffffffffffffffffffffffffffffffff1614611b13576040517f08c379a0000000000000000000000000000000000000000000000000000000008152600401611b0a90613fcb565b60405180910390fd5b600073ffffffffffffffffffffffffffffffffffffffff168273ffffffffffffffffffffffffffffffffffffffff161415611b83576040517f08c379a0000000000000000000000000000000000000000000000000000000008152600401611b7a90613eab565b60405180910390fd5b611b8e8383836122ae565b611b99600082611906565b6001600460008573ffffffffffffffffffffffffffffffffffffffff1673ffffffffffffffffffffffffffffffffffffffff1681526020019081526020016000206000828254611be99190614312565b925050819055506001600460008473ffffffffffffffffffffffffffffffffffffffff1673ffffffffffffffffffffffffffffffffffffffff1681526020019081526020016000206000828254611c409190614231565b92505081905550816003600083815260200190815260200160002060006101000a81548173ffffffffffffffffffffffffffffffffffffffff021916908373ffffffffffffffffffffffffffffffffffffffff160217905550808273ffffffffffffffffffffffffffffffffffffffff168473ffffffffffffffffffffffffffffffffffffffff167fddf252ad1be2c89b69c2b068fc378daa952ba7f163c4a11628f55a4df523b3ef60405160405180910390a4505050565b611d0283611892565b611d41576040517f08c379a0000000000000000000000000000000000000000000000000000000008152600401611d3890613e0b565b60405180910390fd5b6000611d4c84610f47565b905060006002811115611d88577f4e487b7100000000000000000000000000000000000000000000000000000000600052602160045260246000fd5b836002811115611dc1577f4e487b7100000000000000000000000000000000000000000000000000000000600052602160045260246000fd5b1415611e3f57611dd083611604565b8051906020012081606001518051906020012014611e23576040517f08c379a0000000000000000000000000000000000000000000000000000000008152600401611e1a9061406b565b60405180910390fd5b818160600181905250611e366001611604565b81608001819052505b60016002811115611e79577f4e487b7100000000000000000000000000000000000000000000000000000000600052602160045260246000fd5b836002811115611eb2577f4e487b7100000000000000000000000000000000000000000000000000000000600052602160045260246000fd5b1415611f1f57611ec26001611604565b8051906020012081608001518051906020012014611f15576040517f08c379a0000000000000000000000000000000000000000000000000000000008152600401611f0c9061404b565b60405180910390fd5b8181608001819052505b611f298482612037565b50505050565b6000600b60009054906101000a900473ffffffffffffffffffffffffffffffffffffffff16905081600b60006101000a81548173ffffffffffffffffffffffffffffffffffffffff021916908373ffffffffffffffffffffffffffffffffffffffff1602179055508173ffffffffffffffffffffffffffffffffffffffff168173ffffffffffffffffffffffffffffffffffffffff167f8be0079c531659141344cd1fd0a4f28419497f9722a3daafe3b4186f6b6457e060405160405180910390a35050565b6001816000016000828254019250508190555050565b600081600001549050919050565b6120338282604051806020016040528060008152506123c2565b5050565b806000808481526020019081526020016000206000820151816000015560208201518160010155604082015181600201908051906020019061207a929190612f59565b506060820151816003019080519060200190612097929190612f59565b5060808201518160040190805190602001906120b4929190612f59565b509050505050565b6120c7848484611a9d565b6120d38484848461241d565b612112576040517f08c379a000000000000000000000000000000000000000000000000000000000815260040161210990613e4b565b60405180910390fd5b50505050565b6060600061212983600001516125b4565b9050600061214d670de0b6b3a764000085602001516121489190614287565b6125b4565b9050600061217d600a67016345785d8a0000876020015161216e9190614287565b61217891906144a8565b6125b4565b905060008282604051602001612194929190613b67565b60405160208183030381529060405290506000846040516020016121b89190613d45565b604051602081830303815290604052905060008288604001516040516020016121e2929190613c5b565b6040516020818303038152906040529050818161221661221189878d604001518e606001518f60800151612761565b61282d565b60405160200161222893929190613bf3565b6040516020818303038152906040529650505050505050919050565b60007f01ffc9a7000000000000000000000000000000000000000000000000000000007bffffffffffffffffffffffffffffffffffffffffffffffffffffffff1916827bffffffffffffffffffffffffffffffffffffffffffffffffffffffff1916149050919050565b6122b98383836129cc565b600073ffffffffffffffffffffffffffffffffffffffff168373ffffffffffffffffffffffffffffffffffffffff1614156122fc576122f7816129d1565b61233b565b8173ffffffffffffffffffffffffffffffffffffffff168373ffffffffffffffffffffffffffffffffffffffff161461233a576123398382612a1a565b5b5b600073ffffffffffffffffffffffffffffffffffffffff168273ffffffffffffffffffffffffffffffffffffffff16141561237e5761237981612b87565b6123bd565b8273ffffffffffffffffffffffffffffffffffffffff168273ffffffffffffffffffffffffffffffffffffffff16146123bc576123bb8282612cca565b5b5b505050565b6123cc8383612d49565b6123d9600084848461241d565b612418576040517f08c379a000000000000000000000000000000000000000000000000000000000815260040161240f90613e4b565b60405180910390fd5b505050565b600061243e8473ffffffffffffffffffffffffffffffffffffffff16612f17565b156125a7578373ffffffffffffffffffffffffffffffffffffffff1663150b7a026124676118fe565b8786866040518563ffffffff1660e01b81526004016124899493929190613d82565b602060405180830381600087803b1580156124a357600080fd5b505af19250505080156124d457506040513d601f19601f820116820180604052508101906124d1919061331a565b60015b612557573d8060008114612504576040519150601f19603f3d011682016040523d82523d6000602084013e612509565b606091505b5060008151141561254f576040517f08c379a000000000000000000000000000000000000000000000000000000000815260040161254690613e4b565b60405180910390fd5b805181602001fd5b63150b7a0260e01b7bffffffffffffffffffffffffffffffffffffffffffffffffffffffff1916817bffffffffffffffffffffffffffffffffffffffffffffffffffffffff1916149150506125ac565b600190505b949350505050565b606060008214156125fc576040518060400160405280600181526020017f3000000000000000000000000000000000000000000000000000000000000000815250905061275c565b600082905060005b6000821461262e5780806126179061445f565b915050600a826126279190614287565b9150612604565b60008167ffffffffffffffff811115612670577f4e487b7100000000000000000000000000000000000000000000000000000000600052604160045260246000fd5b6040519080825280601f01601f1916602001820160405280156126a25781602001600182028036833780820191505090505b5090505b60008514612755576001826126bb9190614312565b9150600a856126ca91906144a8565b60306126d69190614231565b60f81b818381518110612712577f4e487b7100000000000000000000000000000000000000000000000000000000600052603260045260246000fd5b60200101907effffffffffffffffffffffffffffffffffffffffffffffffffffffffffffff1916908160001a905350600a8561274e9190614287565b94506126a6565b8093505050505b919050565b6060600060ff878051906020012060001c61277c91906144a8565b9050600060ff878051906020012060001c61279791906144a8565b9050600060ff878051906020012060001c6127b291906144a8565b905060006127bf846125b4565b6127c8846125b4565b6127d1846125b4565b6040516020016127e393929190613b96565b604051602081830303815290604052905089818a89898c60405160200161280f96959493929190613ca0565b60405160208183030381529060405294505050505095945050505050565b6060600082511415612850576040518060200160405280600081525090506129c7565b600060405180606001604052806040815260200161589f604091399050600060036002855161287f9190614231565b6128899190614287565b600461289591906142b8565b905060006020826128a69190614231565b67ffffffffffffffff8111156128e5577f4e487b7100000000000000000000000000000000000000000000000000000000600052604160045260246000fd5b6040519080825280601f01601f1916602001820160405280156129175781602001600182028036833780820191505090505b509050818152600183018586518101602084015b81831015612986576003830192508251603f8160121c168501518253600182019150603f81600c1c168501518253600182019150603f8160061c168501518253600182019150603f811685015182536001820191505061292b565b6003895106600181146129a057600281146129b0576129bb565b613d3d60f01b60028303526129bb565b603d60f81b60018303525b50505050508093505050505b919050565b505050565b600980549050600a600083815260200190815260200160002081905550600981908060018154018082558091505060019003906000526020600020016000909190919091505550565b60006001612a2784610d4b565b612a319190614312565b9050600060086000848152602001908152602001600020549050818114612b16576000600760008673ffffffffffffffffffffffffffffffffffffffff1673ffffffffffffffffffffffffffffffffffffffff168152602001908152602001600020600084815260200190815260200160002054905080600760008773ffffffffffffffffffffffffffffffffffffffff1673ffffffffffffffffffffffffffffffffffffffff168152602001908152602001600020600084815260200190815260200160002081905550816008600083815260200190815260200160002081905550505b6008600084815260200190815260200160002060009055600760008573ffffffffffffffffffffffffffffffffffffffff1673ffffffffffffffffffffffffffffffffffffffff16815260200190815260200160002060008381526020019081526020016000206000905550505050565b60006001600980549050612b9b9190614312565b90506000600a6000848152602001908152602001600020549050600060098381548110612bf1577f4e487b7100000000000000000000000000000000000000000000000000000000600052603260045260246000fd5b906000526020600020015490508060098381548110612c39577f4e487b7100000000000000000000000000000000000000000000000000000000600052603260045260246000fd5b906000526020600020018190555081600a600083815260200190815260200160002081905550600a6000858152602001908152602001600020600090556009805480612cae577f4e487b7100000000000000000000000000000000000000000000000000000000600052603160045260246000fd5b6001900381819060005260206000200160009055905550505050565b6000612cd583610d4b565b905081600760008573ffffffffffffffffffffffffffffffffffffffff1673ffffffffffffffffffffffffffffffffffffffff168152602001908152602001600020600083815260200190815260200160002081905550806008600084815260200190815260200160002081905550505050565b600073ffffffffffffffffffffffffffffffffffffffff168273ffffffffffffffffffffffffffffffffffffffff161415612db9576040517f08c379a0000000000000000000000000000000000000000000000000000000008152600401612db090613f6b565b60405180910390fd5b612dc281611892565b15612e02576040517f08c379a0000000000000000000000000000000000000000000000000000000008152600401612df990613e8b565b60405180910390fd5b612e0e600083836122ae565b6001600460008473ffffffffffffffffffffffffffffffffffffffff1673ffffffffffffffffffffffffffffffffffffffff1681526020019081526020016000206000828254612e5e9190614231565b92505081905550816003600083815260200190815260200160002060006101000a81548173ffffffffffffffffffffffffffffffffffffffff021916908373ffffffffffffffffffffffffffffffffffffffff160217905550808273ffffffffffffffffffffffffffffffffffffffff16600073ffffffffffffffffffffffffffffffffffffffff167fddf252ad1be2c89b69c2b068fc378daa952ba7f163c4a11628f55a4df523b3ef60405160405180910390a45050565b600080823b905060008111915050919050565b6040518060a0016040528060008152602001600081526020016060815260200160608152602001606081525090565b828054612f65906143fc565b90600052602060002090601f016020900481019282612f875760008555612fce565b82601f10612fa057805160ff1916838001178555612fce565b82800160010185558215612fce579182015b82811115612fcd578251825591602001919060010190612fb2565b5b509050612fdb9190612fdf565b5090565b5b80821115612ff8576000816000905550600101612fe0565b5090565b600061300f61300a8461417b565b614156565b90508281526020810184848401111561302757600080fd5b6130328482856143ba565b509392505050565b600061304d613048846141ac565b614156565b90508281526020810184848401111561306557600080fd5b6130708482856143ba565b509392505050565b60008135905061308781615832565b92915050565b60008135905061309c81615849565b92915050565b6000813590506130b181615860565b92915050565b6000815190506130c681615860565b92915050565b600082601f8301126130dd57600080fd5b81356130ed848260208601612ffc565b91505092915050565b60008135905061310581615877565b92915050565b600082601f83011261311c57600080fd5b813561312c84826020860161303a565b91505092915050565b60008135905061314481615887565b92915050565b60006020828403121561315c57600080fd5b600061316a84828501613078565b91505092915050565b6000806040838503121561318657600080fd5b600061319485828601613078565b92505060206131a585828601613078565b9150509250929050565b6000806000606084860312156131c457600080fd5b60006131d286828701613078565b93505060206131e386828701613078565b92505060406131f486828701613135565b9150509250925092565b6000806000806080858703121561321457600080fd5b600061322287828801613078565b945050602061323387828801613078565b935050604061324487828801613135565b925050606085013567ffffffffffffffff81111561326157600080fd5b61326d878288016130cc565b91505092959194509250565b6000806040838503121561328c57600080fd5b600061329a85828601613078565b92505060206132ab8582860161308d565b9150509250929050565b600080604083850312156132c857600080fd5b60006132d685828601613078565b92505060206132e785828601613135565b9150509250929050565b60006020828403121561330357600080fd5b6000613311848285016130a2565b91505092915050565b60006020828403121561332c57600080fd5b600061333a848285016130b7565b91505092915050565b60006020828403121561335557600080fd5b6000613363848285016130f6565b91505092915050565b60006020828403121561337e57600080fd5b600082013567ffffffffffffffff81111561339857600080fd5b6133a48482850161310b565b91505092915050565b6000602082840312156133bf57600080fd5b60006133cd84828501613135565b91505092915050565b600080604083850312156133e957600080fd5b60006133f785828601613135565b925050602083013567ffffffffffffffff81111561341457600080fd5b6134208582860161310b565b9150509250929050565b61343381614346565b82525050565b61344281614358565b82525050565b6000613453826141dd565b61345d81856141f3565b935061346d8185602086016143c9565b61347681614595565b840191505092915050565b600061348c826141e8565b6134968185614204565b93506134a68185602086016143c9565b6134af81614595565b840191505092915050565b60006134c5826141e8565b6134cf8185614215565b93506134df8185602086016143c9565b6134e881614595565b840191505092915050565b60006134fe826141e8565b6135088185614226565b93506135188185602086016143c9565b80840191505092915050565b6000613531602b83614215565b915061353c826145a6565b604082019050919050565b6000613554602b83614215565b915061355f826145f5565b604082019050919050565b6000613577603283614215565b915061358282614644565b604082019050919050565b600061359a602683614215565b91506135a582614693565b604082019050919050565b60006135bd601c83614215565b91506135c8826146e2565b602082019050919050565b60006135e0600183614226565b91506135eb8261470b565b600182019050919050565b6000613603602483614215565b915061360e82614734565b604082019050919050565b6000613626601983614215565b915061363182614783565b602082019050919050565b6000613649601783614226565b9150613654826147ac565b601782019050919050565b600061366d61019e83614226565b9150613678826147d5565b61019e82019050919050565b6000613691602c83614215565b915061369c826149cb565b604082019050919050565b60006136b4607a83614226565b91506136bf82614a1a565b607a82019050919050565b60006136d7600d83614226565b91506136e282614ab5565b600d82019050919050565b60006136fa606383614226565b915061370582614ade565b606382019050919050565b600061371d603883614215565b915061372882614b79565b604082019050919050565b6000613740600183614226565b915061374b82614bc8565b600182019050919050565b6000613763602a83614215565b915061376e82614bf1565b604082019050919050565b6000613786602983614215565b915061379182614c40565b604082019050919050565b60006137a9600c83614226565b91506137b482614c8f565b600c82019050919050565b60006137cc600583614226565b91506137d782614cb8565b600582019050919050565b60006137ef600283614226565b91506137fa82614ce1565b600282019050919050565b600061381361039183614226565b915061381e82614d0a565b61039182019050919050565b6000613837602083614215565b915061384282615170565b602082019050919050565b600061385a602c83614215565b915061386582615199565b604082019050919050565b600061387d601283614226565b9150613888826151e8565b601282019050919050565b60006138a0602083614215565b91506138ab82615211565b602082019050919050565b60006138c3607483614226565b91506138ce8261523a565b607482019050919050565b60006138e6607483614226565b91506138f1826152d5565b607482019050919050565b6000613909602983614215565b915061391482615370565b604082019050919050565b600061392c602183614226565b9150613937826153bf565b602182019050919050565b600061394f603c83614226565b915061395a8261540e565b603c82019050919050565b6000613972602183614215565b915061397d8261545d565b604082019050919050565b600061399661011583614226565b91506139a1826154ac565b61011582019050919050565b60006139ba600283614226565b91506139c582615606565b600282019050919050565b60006139dd603183614215565b91506139e88261562f565b604082019050919050565b6000613a00602c83614215565b9150613a0b8261567e565b604082019050919050565b6000613a23601683614226565b9150613a2e826156cd565b601682019050919050565b6000613a46604883614215565b9150613a51826156f6565b606082019050919050565b6000613a69603283614215565b9150613a748261576b565b604082019050919050565b6000613a8c603083614215565b9150613a97826157ba565b604082019050919050565b6000613aaf601a83614226565b9150613aba82615809565b601a82019050919050565b600060a083016000830151613add6000860182613b49565b506020830151613af06020860182613b49565b5060408301518482036040860152613b088282613481565b91505060608301518482036060860152613b228282613481565b91505060808301518482036080860152613b3c8282613481565b9150508091505092915050565b613b52816143b0565b82525050565b613b61816143b0565b82525050565b6000613b7382856134f3565b9150613b7e82613733565b9150613b8a82846134f3565b91508190509392505050565b6000613ba1826137bf565b9150613bad82866134f3565b9150613bb8826135d3565b9150613bc482856134f3565b9150613bcf826135d3565b9150613bdb82846134f3565b9150613be6826139ad565b9150819050949350505050565b6000613bfe8261391f565b9150613c0a82866134f3565b9150613c1582613870565b9150613c2182856134f3565b9150613c2c8261379c565b9150613c3782613aa2565b9150613c4382846134f3565b9150613c4e826137e2565b9150819050949350505050565b6000613c6682613942565b9150613c7282856134f3565b9150613c7d8261363c565b9150613c8982846134f3565b9150613c94826138b6565b91508190509392505050565b6000613cab82613988565b9150613cb782896134f3565b9150613cc28261365f565b9150613cce82886134f3565b9150613cd982613805565b9150613ce582876134f3565b9150613cf0826136a7565b9150613cfc82866134f3565b9150613d07826138d9565b9150613d1382856134f3565b9150613d1e826136ed565b9150613d2a82846134f3565b9150613d35826136ca565b9150819050979650505050505050565b6000613d5082613a16565b9150613d5c82846134f3565b915081905092915050565b6000602082019050613d7c600083018461342a565b92915050565b6000608082019050613d97600083018761342a565b613da4602083018661342a565b613db16040830185613b58565b8181036060830152613dc38184613448565b905095945050505050565b6000602082019050613de36000830184613439565b92915050565b60006020820190508181036000830152613e0381846134ba565b905092915050565b60006020820190508181036000830152613e2481613524565b9050919050565b60006020820190508181036000830152613e4481613547565b9050919050565b60006020820190508181036000830152613e648161356a565b9050919050565b60006020820190508181036000830152613e848161358d565b9050919050565b60006020820190508181036000830152613ea4816135b0565b9050919050565b60006020820190508181036000830152613ec4816135f6565b9050919050565b60006020820190508181036000830152613ee481613619565b9050919050565b60006020820190508181036000830152613f0481613684565b9050919050565b60006020820190508181036000830152613f2481613710565b9050919050565b60006020820190508181036000830152613f4481613756565b9050919050565b60006020820190508181036000830152613f6481613779565b9050919050565b60006020820190508181036000830152613f848161382a565b9050919050565b60006020820190508181036000830152613fa48161384d565b9050919050565b60006020820190508181036000830152613fc481613893565b9050919050565b60006020820190508181036000830152613fe4816138fc565b9050919050565b6000602082019050818103600083015261400481613965565b9050919050565b60006020820190508181036000830152614024816139d0565b9050919050565b60006020820190508181036000830152614044816139f3565b9050919050565b6000602082019050818103600083015261406481613a39565b9050919050565b6000602082019050818103600083015261408481613a5c565b9050919050565b600060208201905081810360008301526140a481613a7f565b9050919050565b600060208201905081810360008301526140c58184613ac5565b905092915050565b60006020820190506140e26000830184613b58565b92915050565b60006040820190506140fd6000830185613b58565b818103602083015261410f81846134ba565b90509392505050565b600060608201905061412d6000830186613b58565b61413a6020830185613b58565b818103604083015261414c81846134ba565b9050949350505050565b6000614160614171565b905061416c828261442e565b919050565b6000604051905090565b600067ffffffffffffffff82111561419657614195614566565b5b61419f82614595565b9050602081019050919050565b600067ffffffffffffffff8211156141c7576141c6614566565b5b6141d082614595565b9050602081019050919050565b600081519050919050565b600081519050919050565b600082825260208201905092915050565b600082825260208201905092915050565b600082825260208201905092915050565b600081905092915050565b600061423c826143b0565b9150614247836143b0565b9250827fffffffffffffffffffffffffffffffffffffffffffffffffffffffffffffffff0382111561427c5761427b6144d9565b5b828201905092915050565b6000614292826143b0565b915061429d836143b0565b9250826142ad576142ac614508565b5b828204905092915050565b60006142c3826143b0565b91506142ce836143b0565b9250817fffffffffffffffffffffffffffffffffffffffffffffffffffffffffffffffff0483118215151615614307576143066144d9565b5b828202905092915050565b600061431d826143b0565b9150614328836143b0565b92508282101561433b5761433a6144d9565b5b828203905092915050565b600061435182614390565b9050919050565b60008115159050919050565b60007fffffffff0000000000000000000000000000000000000000000000000000000082169050919050565b600073ffffffffffffffffffffffffffffffffffffffff82169050919050565b6000819050919050565b82818337600083830152505050565b60005b838110156143e75780820151818401526020810190506143cc565b838111156143f6576000848401525b50505050565b6000600282049050600182168061441457607f821691505b6020821081141561442857614427614537565b5b50919050565b61443782614595565b810181811067ffffffffffffffff8211171561445657614455614566565b5b80604052505050565b600061446a826143b0565b91507fffffffffffffffffffffffffffffffffffffffffffffffffffffffffffffffff82141561449d5761449c6144d9565b5b600182019050919050565b60006144b3826143b0565b91506144be836143b0565b9250826144ce576144cd614508565b5b828206905092915050565b7f4e487b7100000000000000000000000000000000000000000000000000000000600052601160045260246000fd5b7f4e487b7100000000000000000000000000000000000000000000000000000000600052601260045260246000fd5b7f4e487b7100000000000000000000000000000000000000000000000000000000600052602260045260246000fd5b7f4e487b7100000000000000000000000000000000000000000000000000000000600052604160045260246000fd5b6000601f19601f8301169050919050565b7f536369656e636546756e643a20546f6b656e206e6565647320746f206265206d60008201527f696e746564206669727374000000000000000000000000000000000000000000602082015250565b7f455243373231456e756d657261626c653a206f776e657220696e646578206f7560008201527f74206f6620626f756e6473000000000000000000000000000000000000000000602082015250565b7f4552433732313a207472616e7366657220746f206e6f6e20455243373231526560008201527f63656976657220696d706c656d656e7465720000000000000000000000000000602082015250565b7f4f776e61626c653a206e6577206f776e657220697320746865207a65726f206160008201527f6464726573730000000000000000000000000000000000000000000000000000602082015250565b7f4552433732313a20746f6b656e20616c7265616479206d696e74656400000000600082015250565b7f2c00000000000000000000000000000000000000000000000000000000000000600082015250565b7f4552433732313a207472616e7366657220746f20746865207a65726f2061646460008201527f7265737300000000000000000000000000000000000000000000000000000000602082015250565b7f4552433732313a20617070726f766520746f2063616c6c657200000000000000600082015250565b7f2057656920746f20536369656e63652046756e64202d20000000000000000000600082015250565b7f3c2f746578743e3c7465787420783d223136352220793d2239302220666f6e7460008201527f2d73697a653d2231322220746578742d616e63686f723d226d6964646c65222060208201527f66696c6c3d22626c61636b2220666f6e742d7765696768743d226e6f72616d6c60408201527f2220666f6e742d7374796c653d226974616c6963223e5265696d6167696e652060608201527f536369656e746966696320446973636f766572793c2f746578743e3c66696c7460808201527f65722069643d22696e736574736861646f77223e3c66654f666673657420696e60a08201527f3d22536f7572636547726170686963222064783d2230222064793d223230222060c08201527f726573756c743d226f66664f757422202f3e3c6665476175737369616e426c7560e08201527f7220696e3d226f66664f75742220737464446576696174696f6e3d22323022206101008201527f726573756c743d226f66667365742d626c7572222f3e3c6665436f6d706f73696101208201527f7465206f70657261746f723d226f75742220696e3d22536f75726365477261706101408201527f6869632220696e323d226f66667365742d626c75722220726573756c743d22696101608201527f6e7665727365222f3e3c6665466c6f6f6420666c6f6f642d636f6c6f723d000061018082015250565b7f4552433732313a206f70657261746f7220717565727920666f72206e6f6e657860008201527f697374656e7420746f6b656e0000000000000000000000000000000000000000602082015250565b7f20455448203c2f746578743e3c7465787420783d223136352220793d2233363260008201527f2220666f6e742d73697a653d2231302220746578742d616e63686f723d226d6960208201527f64646c652220666f6e742d7765696768743d226e6f726d616c222066696c6c3d60408201527f22626c61636b223e416c6c6f636174696f6e2048617368203a20000000000000606082015250565b7f3c2f746578743e3c2f7376673e00000000000000000000000000000000000000600082015250565b7f3c2f746578743e3c7465787420783d223136352220793d223430392220666f6e60008201527f742d73697a653d2231322220746578742d616e63686f723d226d6964646c652260208201527f20666f6e742d7765696768743d22626f6c64222066696c6c3d2223463939353060408201527f30223e0000000000000000000000000000000000000000000000000000000000606082015250565b7f4552433732313a20617070726f76652063616c6c6572206973206e6f74206f7760008201527f6e6572206e6f7220617070726f76656420666f7220616c6c0000000000000000602082015250565b7f2e00000000000000000000000000000000000000000000000000000000000000600082015250565b7f4552433732313a2062616c616e636520717565727920666f7220746865207a6560008201527f726f206164647265737300000000000000000000000000000000000000000000602082015250565b7f4552433732313a206f776e657220717565727920666f72206e6f6e657869737460008201527f656e7420746f6b656e0000000000000000000000000000000000000000000000602082015250565b7f222c2022696d616765223a220000000000000000000000000000000000000000600082015250565b7f2272676228000000000000000000000000000000000000000000000000000000600082015250565b7f227d000000000000000000000000000000000000000000000000000000000000600082015250565b7f20666c6f6f642d6f7061636974793d222e33352220726573756c743d22636f6c60008201527f6f72222f3e3c6665436f6d706f73697465206f70657261746f723d22696e222060208201527f696e3d22636f6c6f722220696e323d22696e76657273652220726573756c743d60408201527f22736861646f77222f3e3c2f66696c7465723e3c672066696c7465723d22757260608201527f6c2823696e736574736861646f7729223e3c636972636c652063783d2231363760808201527f222063793d223231322220723d22313030222066696c6c3d222346464646464660a08201527f22207374726f6b653d222346393935303022207374726f6b652d77696474683d60c08201527f223522202f3e3c2f673e3c636972636c652063783d22313638222063793d223160e08201527f36372220723d223135222066696c6c3d222346464646464622207374726f6b656101008201527f3d222346393935303022207374726f6b652d77696474683d223422202f3e3c636101208201527f6972636c652063783d22323137222063793d223230382220723d2231352220666101408201527f696c6c3d222346464646464622207374726f6b653d22234639393530302220736101608201527f74726f6b652d77696474683d223422202f3e3c636972636c652063783d2231326101808201527f35222063793d223234312220723d223135222066696c6c3d22234646464646466101a08201527f22207374726f6b653d222346393935303022207374726f6b652d77696474683d6101c08201527f223422202f3e3c6c696e652078313d22313638222079313d22313838222078326101e08201527f3d22313638222079323d2233313222207374726f6b653d2223303638423042226102008201527f207374726f6b652d77696474683d223422207374726f6b652d6c696e656361706102208201527f3d22726f756e6422202f3e3c7061746820643d224d20313638203331322051206102408201527f313638203234312c203139382032313822207374726f6b653d222330363842306102608201527f4222207374726f6b652d77696474683d2234222066696c6c3d227472616e73706102808201527f6172656e7422207374726f6b652d6c696e656361703d22726f756e6422202f3e6102a08201527f3c7061746820643d224d2031363820333132205120313638203236312c2031346102c08201527f342032343922207374726f6b653d222330363842304222207374726f6b652d776102e08201527f696474683d2234222066696c6c3d227472616e73706172656e7422207374726f6103008201527f6b652d6c696e656361703d22726f756e6422202f3e3c7465787420783d2231366103208201527f352220793d223334342220666f6e742d73697a653d2231322220746578742d616103408201527f6e63686f723d226d6964646c652220666f6e742d7765696768743d226e6f726d6103608201527f616c222066696c6c3d22626c61636b223e00000000000000000000000000000061038082015250565b7f4552433732313a206d696e7420746f20746865207a65726f2061646472657373600082015250565b7f4552433732313a20617070726f76656420717565727920666f72206e6f6e657860008201527f697374656e7420746f6b656e0000000000000000000000000000000000000000602082015250565b7f222c20226465736372697074696f6e223a220000000000000000000000000000600082015250565b7f4f776e61626c653a2063616c6c6572206973206e6f7420746865206f776e6572600082015250565b7f2066756e64696e6720706f6f6c2e205468697320746f6b656e20636f6e6e656360008201527f747320796f757220646f6e6174696f6e20746f2074686520726563657069656e60208201527f7420616e642074686520696d7061637420697420656e61626c657320666f722060408201527f67656e65726174696f6e7320746f20636f6d652e000000000000000000000000606082015250565b7f3c2f746578743e3c7465787420783d223136352220793d223338302220666f6e60008201527f742d73697a653d2231302220746578742d616e63686f723d226d6964646c652260208201527f20666f6e742d7765696768743d226e6f726d616c222066696c6c3d22626c616360408201527f6b223e436f6d706c6574696f6e20486173683a20000000000000000000000000606082015250565b7f4552433732313a207472616e73666572206f6620746f6b656e2074686174206960008201527f73206e6f74206f776e0000000000000000000000000000000000000000000000602082015250565b7f646174613a6170706c69636174696f6e2f6a736f6e2c207b226e616d65223a2060008201527f2200000000000000000000000000000000000000000000000000000000000000602082015250565b7f54686973204e465420726570726573656e74732061207065726d616e656e742060008201527f7265636569707420746f20796f757220646f6e6174696f6e206f662000000000602082015250565b7f4552433732313a20617070726f76616c20746f2063757272656e74206f776e6560008201527f7200000000000000000000000000000000000000000000000000000000000000602082015250565b7f3c7376672076657273696f6e3d22312e31222076696577426f783d223020302060008201527f33333120343236222077696474683d2233333122206865696768743d2234323660208201527f22207072657365727665417370656374526174696f3d22784d6964594d696e2260408201527f20786d6c6e733d22687474703a2f2f7777772e77332e6f72672f323030302f7360608201527f7667223e3c726563742077696474683d223130302522206865696768743d223160808201527f303025222066696c6c3d222346464646464622202f3e3c7465787420783d223160a08201527f36352220793d2236302220666f6e742d73697a653d2234352220746578742d6160c08201527f6e63686f723d226d6964646c65222066696c6c3d22626c61636b2220666f6e7460e08201527f2d7765696768743d226e6f726d616c223e5346542d000000000000000000000061010082015250565b7f2922000000000000000000000000000000000000000000000000000000000000600082015250565b7f4552433732313a207472616e736665722063616c6c6572206973206e6f74206f60008201527f776e6572206e6f7220617070726f766564000000000000000000000000000000602082015250565b7f455243373231456e756d657261626c653a20676c6f62616c20696e646578206f60008201527f7574206f6620626f756e64730000000000000000000000000000000000000000602082015250565b7f536369656e63652046756e6420546f6b656e202d202300000000000000000000600082015250565b7f536369656e636546756e643a2074686520746f6b656e206e6565647320746f2060008201527f626520616c6c6f636174656420616e6420796574206e6f74206265656e20636f60208201527f6d706c6574656420000000000000000000000000000000000000000000000000604082015250565b7f536369656e636546756e643a2074686520746f6b656e206e656564206e6f742060008201527f6265656e20616c6c6f6361746564207965740000000000000000000000000000602082015250565b7f536369656e636546756e643a206d696e696d756d2076616c7565206f6620302e60008201527f3345544820697320726571756972656400000000000000000000000000000000602082015250565b7f646174613a696d6167652f7376672b786d6c3b6261736536342c000000000000600082015250565b61583b81614346565b811461584657600080fd5b50565b61585281614358565b811461585d57600080fd5b50565b61586981614364565b811461587457600080fd5b50565b6003811061588457600080fd5b50565b615890816143b0565b811461589b57600080fd5b5056fe4142434445464748494a4b4c4d4e4f505152535455565758595a6162636465666768696a6b6c6d6e6f707172737475767778797a303132333435363738392b2fa26469706673582212200f864840bf31505b6e229f54c3ccd50b9fbdd266c2666a85c35f4c5b1124f8d564736f6c63430008040033",
  "linkReferences": {},
  "deployedLinkReferences": {}
}