{
  "_format": "hh-sol-artifact-1",
  "contractName": "ScienceFundToken",
  "sourceName": "contracts/ScienceFundToken.sol",
  "abi": [
    {
      "anonymous": false,
      "inputs": [
        {
          "indexed": false,
          "internalType": "uint256",
          "name": "id",
          "type": "uint256"
        },
        {
          "indexed": false,
          "internalType": "string",
          "name": "allocationHash",
          "type": "string"
        }
      ],
      "name": "SFTokenAllocated",
      "type": "event"
    },
    {
      "anonymous": false,
      "inputs": [
        {
          "indexed": false,
          "internalType": "uint256",
          "name": "id",
          "type": "uint256"
        },
        {
          "indexed": false,
          "internalType": "string",
          "name": "completeHash",
          "type": "string"
        }
      ],
      "name": "SFTokenCompleted",
      "type": "event"
    },
    {
      "anonymous": false,
      "inputs": [
        {
          "indexed": false,
          "internalType": "uint256",
          "name": "id",
          "type": "uint256"
        },
        {
          "indexed": false,
          "internalType": "uint256",
          "name": "value",
          "type": "uint256"
        },
        {
          "indexed": false,
          "internalType": "string",
          "name": "pool",
          "type": "string"
        }
      ],
      "name": "SFTokenMinted",
      "type": "event"
    },
    {
      "inputs": [
        {
          "internalType": "uint256",
          "name": "_tokenID",
          "type": "uint256"
        }
      ],
      "name": "getSFToken",
      "outputs": [
        {
          "components": [
            {
              "internalType": "uint256",
              "name": "tokenId",
              "type": "uint256"
            },
            {
              "internalType": "uint256",
              "name": "value",
              "type": "uint256"
            },
            {
              "internalType": "string",
              "name": "pool",
              "type": "string"
            },
            {
              "internalType": "string",
              "name": "alloHash",
              "type": "string"
            },
            {
              "internalType": "string",
              "name": "completeHash",
              "type": "string"
            }
          ],
          "internalType": "struct ScienceFundToken.SFtoken",
          "name": "",
          "type": "tuple"
        }
      ],
      "stateMutability": "view",
      "type": "function"
    },
    {
      "inputs": [
        {
          "internalType": "enum ScienceFundToken.Stage",
          "name": "stageEnum",
          "type": "uint8"
        }
      ],
      "name": "getStage",
      "outputs": [
        {
          "internalType": "string",
          "name": "",
          "type": "string"
        }
      ],
      "stateMutability": "pure",
      "type": "function"
    }
  ],
  "bytecode": "0x608060405234801561001057600080fd5b5061076a806100206000396000f3fe608060405234801561001057600080fd5b50600436106100365760003560e01c80639ab511da1461003b578063f31104321461006b575b600080fd5b610055600480360381019061005091906104bf565b61009b565b604051610062919061060f565b60405180910390f35b61008560048036038101906100809190610496565b610291565b60405161009291906105ed565b60405180910390f35b6100a361043d565b6000808381526020019081526020016000206040518060a001604052908160008201548152602001600182015481526020016002820180546100e49061069b565b80601f01602080910402602001604051908101604052809291908181526020018280546101109061069b565b801561015d5780601f106101325761010080835404028352916020019161015d565b820191906000526020600020905b81548152906001019060200180831161014057829003601f168201915b505050505081526020016003820180546101769061069b565b80601f01602080910402602001604051908101604052809291908181526020018280546101a29061069b565b80156101ef5780601f106101c4576101008083540402835291602001916101ef565b820191906000526020600020905b8154815290600101906020018083116101d257829003601f168201915b505050505081526020016004820180546102089061069b565b80601f01602080910402602001604051908101604052809291908181526020018280546102349061069b565b80156102815780601f1061025657610100808354040283529160200191610281565b820191906000526020600020905b81548152906001019060200180831161026457829003601f168201915b5050505050815250509050919050565b6060600060028111156102cd577f4e487b7100000000000000000000000000000000000000000000000000000000600052602160045260246000fd5b826002811115610306577f4e487b7100000000000000000000000000000000000000000000000000000000600052602160045260246000fd5b1415610349576040518060400160405280601381526020017f4177616974696e6720416c6c6f636174696f6e000000000000000000000000008152509050610438565b60016002811115610383577f4e487b7100000000000000000000000000000000000000000000000000000000600052602160045260246000fd5b8260028111156103bc577f4e487b7100000000000000000000000000000000000000000000000000000000600052602160045260246000fd5b14156103ff576040518060400160405280601381526020017f4177616974696e6720436f6d706c6574696f6e000000000000000000000000008152509050610438565b6040518060400160405280600981526020017f436f6d706c65746564000000000000000000000000000000000000000000000081525090505b919050565b6040518060a0016040528060008152602001600081526020016060815260200160608152602001606081525090565b60008135905061047b8161070d565b92915050565b6000813590506104908161071d565b92915050565b6000602082840312156104a857600080fd5b60006104b68482850161046c565b91505092915050565b6000602082840312156104d157600080fd5b60006104df84828501610481565b91505092915050565b60006104f382610631565b6104fd818561063c565b935061050d818560208601610668565b610516816106fc565b840191505092915050565b600061052c82610631565b610536818561064d565b9350610546818560208601610668565b61054f816106fc565b840191505092915050565b600060a08301600083015161057260008601826105de565b50602083015161058560208601826105de565b506040830151848203604086015261059d82826104e8565b915050606083015184820360608601526105b782826104e8565b915050608083015184820360808601526105d182826104e8565b9150508091505092915050565b6105e78161065e565b82525050565b600060208201905081810360008301526106078184610521565b905092915050565b60006020820190508181036000830152610629818461055a565b905092915050565b600081519050919050565b600082825260208201905092915050565b600082825260208201905092915050565b6000819050919050565b60005b8381101561068657808201518184015260208101905061066b565b83811115610695576000848401525b50505050565b600060028204905060018216806106b357607f821691505b602082108114156106c7576106c66106cd565b5b50919050565b7f4e487b7100000000000000000000000000000000000000000000000000000000600052602260045260246000fd5b6000601f19601f8301169050919050565b6003811061071a57600080fd5b50565b6107268161065e565b811461073157600080fd5b5056fea2646970667358221220f4df30514f268ee394edb4a35658d25305bd4a4000780349021488c183ad7e5764736f6c63430008040033",
  "linkReferences": {},
  "deployedLinkReferences": {}
}